:100000000C942A000C942B010C9449010C94470089
:100010000C9447000C9447000C9447000C94470044
:100020000C9447000C9447000C9447000C94470034
:100030000C9447000C9406010C9447000C94470064
:100040000C9447000C9447000C9447000C94470014
:100050000C94470011241FBECFE5D8E0DEBFCDBF12
:1000600010E0A0E6B0E0E4E9F3E002C005900D92F4
:10007000A638B107D9F710E0A6E8B0E001C01D929C
:10008000AB38B107E1F70E94CB000C94C8010C9487
:1000900000000F931F93DC01CB01522F8C019D01B7
:1000A0000E56104020403040033961EC160761E0E5
:1000B000260760E0360770F5453060F1493050F5AD
:1000C00020E22BB928E12AB95111579A242F30E0A8
:1000D00025503040220F331F206820BD880F991F04
:1000E000AA1FBB1F880F991FAA1FBB1F9C01AD0130
:1000F000220F331F441F551F220F331F441F551F4C
:1001000060E070E488E390E00E946101215030409B
:1001100030BD29B91F910F9108958BB18078089552
:100120005F9BFECF8CB108955D9BFECF8CB9089587
:10013000CF93DF93EC018881882331F021960E94D0
:10014000940089918823D9F7DF91CF910895CF93B7
:10015000DF93CDB7DEB727970FB6F894DEBF0FBE9B
:10016000CDBFBE016F5F7F4F4AE050E00E94830128
:10017000CE0101960E94980027960FB6F894DEBF34
:100180000FBECDBFDF91CF91089581E085BF8BB7C2
:10019000806C8BBF08950E94C5008FEF87BB88BB22
:1001A00060E875E280E090E048E021E00E944900CC
:1001B000789400E610E00F2EF3E7EF2EF0E0FF2E2C
:1001C000F02DC8E8D0E080918600909187000097DC
:1001D000C9F08FEF9FE3ABE081509040A040E1F782
:1001E00000C000001092870010928600C8010E9493
:1001F000980080918800909189000E94A700C70113
:100200000E9498008881809588BBDDCF1F920F9255
:100210000FB60F9211242F933F934F935F936F93D9
:100220007F938F939F93AF93BF93EF93FF938CB183
:100230000E949400FF91EF91BF91AF919F918F9198
:100240007F916F915F914F913F912F910F900FBED2
:100250000F901F9018951F920F920FB60F921124B6
:100260008F939F93809186009091870081309105B4
:1002700049F48091880090918900019690938900BB
:10028000809388009F918F910F900FBE0F901F90C9
:1002900018951F920F920FB60F9211248F939F9370
:1002A00081E090E09093870080938600109289000F
:1002B000109288009F918F910F900FBE0F901F900A
:1002C0001895A1E21A2EAA1BBB1BFD010DC0AA1F87
:1002D000BB1FEE1FFF1FA217B307E407F50720F0AF
:1002E000A21BB30BE40BF50B661F771F881F991F2A
:1002F0001A9469F760957095809590959B01AC0173
:10030000BD01CF010895FB019F01E8944230C4F084
:100310004532B4F44A3029F497FB1EF49095819548
:100320009F4F642F77270E94B401805D8A330CF0C1
:10033000895D8193CB010097A1F716F45DE251939B
:100340001082C9010C94A401DC01FC01672F71919A
:100350007723E1F7329704C07C916D9370836291AB
:10036000AE17BF07C8F30895AA1BBB1B51E107C016
:10037000AA1FBB1FA617B70710F0A61BB70B881F35
:10038000991F5A95A9F780959095BC01CD010895C4
:04039000F894FFCF0F
:1003940044657220626C6576206465746563746577
:1003A400642000207A65726F2064657465637469E3
:0603B4006F6E732E0000C5
:00000001FF
