:100000000C942A000C946E000C948C000C94470005
:100010000C9447000C9447000C9447000C94470044
:100020000C9447000C9447000C9447000C94470034
:100030000C9447000C9447000C9447000C94470024
:100040000C9447000C9447000C9447000C94470014
:100050000C94470011241FBECFE5D8E0DEBFCDBF12
:1000600010E0A0E6B0E0ECE4F1E002C005900D92F3
:10007000A036B107D9F710E0A0E6B0E001C01D92AC
:10008000A436B107E1F70E944F000C94A4000C9431
:10009000000081E085BF8BB7806C8BBF08950E9404
:1000A00049008FEF87BB88BB7894E2E6F0E080914F
:1000B000600090916100009769F08FEF9FE3ABE0E3
:1000C00081509040A040E1F700C000001092610014
:1000D000109260008081809588BBE9CF1F920F92BB
:1000E0000FB60F9211248F939F938091600090918F
:1000F00061008130910549F4809162009091630024
:10010000019690936300809362009F918F910F906E
:100110000FBE0F901F9018951F920F920FB60F925F
:1001200011248F939F9381E090E0909361008093DE
:10013000600010926300109262009F918F910F9067
:0C0140000FBE0F901F901895F894FFCF91
:00000001FF
